:100000000C9434000C943E000C943E000C943E0082
:100010000C943E000C943E000C943E000C943E0068
:100020000C943E000C943E000C943E000C943E0058
:100030000C943E000C943E000C943E000C943E0048
:100040000C943E000C943E000C943E000C943E0038
:100050000C943E000C943E000C943E000C943E0028
:100060000C943E000C943E0011241FBECFEFD8E04C
:10007000DEBFCDBF0E9459000C949E000C9400007E
:1000800084B18C6284B92A9A81E58CBD08952A983E
:100090008EBD0DB407FEFDCF2A9A0895009741F05A
:1000A000EFECF7E03197F1F700C000000197C1F7DE
:1000B00008950E944000FF24F39401E010E0C0E0A6
:1000C000D0E003C021960F5F1F4F8F2D0C2E01C073
:1000D000880F0A94EAF70E944700209729F484E6E3
:1000E00090E00E944E00EECFCE018C599F4F9C01B4
:1000F0002C9FC0012D9F900D3C9F900D11240E94BC
:100100004E0007301105F4F2C7E0D0E08F2D0C2E21
:1001100001C0880F0A94EAF70E944700CE018C596B
:100120009F4F9C012C9FC0012D9F900D3C9F900DD7
:1001300011240E944E00219748F7BFCFF894FFCFBB
:00000001FF
